{
  "_format": "hh-sol-artifact-1",
  "contractName": "TipJar",
  "sourceName": "contracts/TipJar.sol",
  "abi": [
    {
      "anonymous": false,
      "inputs": [
        {
          "indexed": true,
          "internalType": "address",
          "name": "previousOwner",
          "type": "address"
        },
        {
          "indexed": true,
          "internalType": "address",
          "name": "newOwner",
          "type": "address"
        }
      ],
      "name": "OwnershipTransferred",
      "type": "event"
    },
    {
      "inputs": [],
      "name": "getBalance",
      "outputs": [
        {
          "internalType": "uint256",
          "name": "",
          "type": "uint256"
        }
      ],
      "stateMutability": "view",
      "type": "function"
    },
    {
      "inputs": [],
      "name": "getTips",
      "outputs": [
        {
          "components": [
            {
              "internalType": "address",
              "name": "from",
              "type": "address"
            },
            {
              "internalType": "string",
              "name": "message",
              "type": "string"
            },
            {
              "internalType": "uint256",
              "name": "amount",
              "type": "uint256"
            }
          ],
          "internalType": "struct TipJar.Tip[]",
          "name": "",
          "type": "tuple[]"
        }
      ],
      "stateMutability": "view",
      "type": "function"
    },
    {
      "inputs": [],
      "name": "owner",
      "outputs": [
        {
          "internalType": "address",
          "name": "",
          "type": "address"
        }
      ],
      "stateMutability": "view",
      "type": "function"
    },
    {
      "inputs": [],
      "name": "renounceOwnership",
      "outputs": [],
      "stateMutability": "nonpayable",
      "type": "function"
    },
    {
      "inputs": [
        {
          "internalType": "string",
          "name": "message",
          "type": "string"
        }
      ],
      "name": "sendTip",
      "outputs": [],
      "stateMutability": "payable",
      "type": "function"
    },
    {
      "inputs": [
        {
          "internalType": "uint256",
          "name": "",
          "type": "uint256"
        }
      ],
      "name": "tips",
      "outputs": [
        {
          "internalType": "address",
          "name": "from",
          "type": "address"
        },
        {
          "internalType": "string",
          "name": "message",
          "type": "string"
        },
        {
          "internalType": "uint256",
          "name": "amount",
          "type": "uint256"
        }
      ],
      "stateMutability": "view",
      "type": "function"
    },
    {
      "inputs": [
        {
          "internalType": "address",
          "name": "newOwner",
          "type": "address"
        }
      ],
      "name": "transferOwnership",
      "outputs": [],
      "stateMutability": "nonpayable",
      "type": "function"
    },
    {
      "inputs": [],
      "name": "withdraw",
      "outputs": [],
      "stateMutability": "nonpayable",
      "type": "function"
    },
    {
      "stateMutability": "payable",
      "type": "receive"
    }
  ],
  "bytecode": "0x608060405234801561001057600080fd5b5061002d61002261003260201b60201c565b61003a60201b60201c565b6100fe565b600033905090565b60008060009054906101000a900473ffffffffffffffffffffffffffffffffffffffff169050816000806101000a81548173ffffffffffffffffffffffffffffffffffffffff021916908373ffffffffffffffffffffffffffffffffffffffff1602179055508173ffffffffffffffffffffffffffffffffffffffff168173ffffffffffffffffffffffffffffffffffffffff167f8be0079c531659141344cd1fd0a4f28419497f9722a3daafe3b4186f6b6457e060405160405180910390a35050565b6111f48061010d6000396000f3fe60806040526004361061007f5760003560e01c806388e4a0731161004e57806388e4a073146101d25780638da5cb5b146101fd578063a5c68c5914610228578063f2fde38b1461026757610158565b806312065fe01461015d5780633ccfd60b14610188578063715018a61461019f5780637f5154b4146101b657610158565b3661015857600160405180606001604052803373ffffffffffffffffffffffffffffffffffffffff16815260200160405180602001604052806000815250815260200134815250908060018154018082558091505060019003906000526020600020906003020160009091909190915060008201518160000160006101000a81548173ffffffffffffffffffffffffffffffffffffffff021916908373ffffffffffffffffffffffffffffffffffffffff160217905550602082015181600101908161014b9190610a88565b5060408201518160020155005b600080fd5b34801561016957600080fd5b50610172610290565b60405161017f9190610b69565b60405180910390f35b34801561019457600080fd5b5061019d610298565b005b3480156101ab57600080fd5b506101b46102f0565b005b6101d060048036038101906101cb9190610caf565b610304565b005b3480156101de57600080fd5b506101e761040f565b6040516101f49190610ece565b60405180910390f35b34801561020957600080fd5b50610212610560565b60405161021f9190610eff565b60405180910390f35b34801561023457600080fd5b5061024f600480360381019061024a9190610f46565b610589565b60405161025e93929190610fbd565b60405180910390f35b34801561027357600080fd5b5061028e60048036038101906102899190611027565b61066b565b005b600047905090565b6102a06106ee565b6102a8610560565b73ffffffffffffffffffffffffffffffffffffffff166108fc479081150290604051600060405180830381858888f193505050501580156102ed573d6000803e3d6000fd5b50565b6102f86106ee565b610302600061076c565b565b60003411610347576040517f08c379a000000000000000000000000000000000000000000000000000000000815260040161033e906110a0565b60405180910390fd5b600160405180606001604052803373ffffffffffffffffffffffffffffffffffffffff16815260200183815260200134815250908060018154018082558091505060019003906000526020600020906003020160009091909190915060008201518160000160006101000a81548173ffffffffffffffffffffffffffffffffffffffff021916908373ffffffffffffffffffffffffffffffffffffffff16021790555060208201518160010190816103ff9190610a88565b5060408201518160020155505050565b60606001805480602002602001604051908101604052809291908181526020016000905b8282101561055757838290600052602060002090600302016040518060600160405290816000820160009054906101000a900473ffffffffffffffffffffffffffffffffffffffff1673ffffffffffffffffffffffffffffffffffffffff1673ffffffffffffffffffffffffffffffffffffffff1681526020016001820180546104bc906108a1565b80601f01602080910402602001604051908101604052809291908181526020018280546104e8906108a1565b80156105355780601f1061050a57610100808354040283529160200191610535565b820191906000526020600020905b81548152906001019060200180831161051857829003601f168201915b5050505050815260200160028201548152505081526020019060010190610433565b50505050905090565b60008060009054906101000a900473ffffffffffffffffffffffffffffffffffffffff16905090565b6001818154811061059957600080fd5b90600052602060002090600302016000915090508060000160009054906101000a900473ffffffffffffffffffffffffffffffffffffffff16908060010180546105e2906108a1565b80601f016020809104026020016040519081016040528092919081815260200182805461060e906108a1565b801561065b5780601f106106305761010080835404028352916020019161065b565b820191906000526020600020905b81548152906001019060200180831161063e57829003601f168201915b5050505050908060020154905083565b6106736106ee565b600073ffffffffffffffffffffffffffffffffffffffff168173ffffffffffffffffffffffffffffffffffffffff16036106e2576040517f08c379a00000000000000000000000000000000000000000000000000000000081526004016106d990611132565b60405180910390fd5b6106eb8161076c565b50565b6106f6610830565b73ffffffffffffffffffffffffffffffffffffffff16610714610560565b73ffffffffffffffffffffffffffffffffffffffff161461076a576040517f08c379a00000000000000000000000000000000000000000000000000000000081526004016107619061119e565b60405180910390fd5b565b60008060009054906101000a900473ffffffffffffffffffffffffffffffffffffffff169050816000806101000a81548173ffffffffffffffffffffffffffffffffffffffff021916908373ffffffffffffffffffffffffffffffffffffffff1602179055508173ffffffffffffffffffffffffffffffffffffffff168173ffffffffffffffffffffffffffffffffffffffff167f8be0079c531659141344cd1fd0a4f28419497f9722a3daafe3b4186f6b6457e060405160405180910390a35050565b600033905090565b600081519050919050565b7f4e487b7100000000000000000000000000000000000000000000000000000000600052604160045260246000fd5b7f4e487b7100000000000000000000000000000000000000000000000000000000600052602260045260246000fd5b600060028204905060018216806108b957607f821691505b6020821081036108cc576108cb610872565b5b50919050565b60008190508160005260206000209050919050565b60006020601f8301049050919050565b600082821b905092915050565b6000600883026109347fffffffffffffffffffffffffffffffffffffffffffffffffffffffffffffffff826108f7565b61093e86836108f7565b95508019841693508086168417925050509392505050565b6000819050919050565b6000819050919050565b600061098561098061097b84610956565b610960565b610956565b9050919050565b6000819050919050565b61099f8361096a565b6109b36109ab8261098c565b848454610904565b825550505050565b600090565b6109c86109bb565b6109d3818484610996565b505050565b5b818110156109f7576109ec6000826109c0565b6001810190506109d9565b5050565b601f821115610a3c57610a0d816108d2565b610a16846108e7565b81016020851015610a25578190505b610a39610a31856108e7565b8301826109d8565b50505b505050565b600082821c905092915050565b6000610a5f60001984600802610a41565b1980831691505092915050565b6000610a788383610a4e565b9150826002028217905092915050565b610a9182610838565b67ffffffffffffffff811115610aaa57610aa9610843565b5b610ab482546108a1565b610abf8282856109fb565b600060209050601f831160018114610af25760008415610ae0578287015190505b610aea8582610a6c565b865550610b52565b601f198416610b00866108d2565b60005b82811015610b2857848901518255600182019150602085019450602081019050610b03565b86831015610b455784890151610b41601f891682610a4e565b8355505b6001600288020188555050505b505050505050565b610b6381610956565b82525050565b6000602082019050610b7e6000830184610b5a565b92915050565b6000604051905090565b600080fd5b600080fd5b600080fd5b600080fd5b6000601f19601f8301169050919050565b610bbc82610ba2565b810181811067ffffffffffffffff82111715610bdb57610bda610843565b5b80604052505050565b6000610bee610b84565b9050610bfa8282610bb3565b919050565b600067ffffffffffffffff821115610c1a57610c19610843565b5b610c2382610ba2565b9050602081019050919050565b82818337600083830152505050565b6000610c52610c4d84610bff565b610be4565b905082815260208101848484011115610c6e57610c6d610b9d565b5b610c79848285610c30565b509392505050565b600082601f830112610c9657610c95610b98565b5b8135610ca6848260208601610c3f565b91505092915050565b600060208284031215610cc557610cc4610b8e565b5b600082013567ffffffffffffffff811115610ce357610ce2610b93565b5b610cef84828501610c81565b91505092915050565b600081519050919050565b600082825260208201905092915050565b6000819050602082019050919050565b600073ffffffffffffffffffffffffffffffffffffffff82169050919050565b6000610d4f82610d24565b9050919050565b610d5f81610d44565b82525050565b600082825260208201905092915050565b60005b83811015610d94578082015181840152602081019050610d79565b60008484015250505050565b6000610dab82610838565b610db58185610d65565b9350610dc5818560208601610d76565b610dce81610ba2565b840191505092915050565b610de281610956565b82525050565b6000606083016000830151610e006000860182610d56565b5060208301518482036020860152610e188282610da0565b9150506040830151610e2d6040860182610dd9565b508091505092915050565b6000610e448383610de8565b905092915050565b6000602082019050919050565b6000610e6482610cf8565b610e6e8185610d03565b935083602082028501610e8085610d14565b8060005b85811015610ebc5784840389528151610e9d8582610e38565b9450610ea883610e4c565b925060208a01995050600181019050610e84565b50829750879550505050505092915050565b60006020820190508181036000830152610ee88184610e59565b905092915050565b610ef981610d44565b82525050565b6000602082019050610f146000830184610ef0565b92915050565b610f2381610956565b8114610f2e57600080fd5b50565b600081359050610f4081610f1a565b92915050565b600060208284031215610f5c57610f5b610b8e565b5b6000610f6a84828501610f31565b91505092915050565b600082825260208201905092915050565b6000610f8f82610838565b610f998185610f73565b9350610fa9818560208601610d76565b610fb281610ba2565b840191505092915050565b6000606082019050610fd26000830186610ef0565b8181036020830152610fe48185610f84565b9050610ff36040830184610b5a565b949350505050565b61100481610d44565b811461100f57600080fd5b50565b60008135905061102181610ffb565b92915050565b60006020828403121561103d5761103c610b8e565b5b600061104b84828501611012565b91505092915050565b7f546970206d7573742062652067726561746572207468616e2030000000000000600082015250565b600061108a601a83610f73565b915061109582611054565b602082019050919050565b600060208201905081810360008301526110b98161107d565b9050919050565b7f4f776e61626c653a206e6577206f776e657220697320746865207a65726f206160008201527f6464726573730000000000000000000000000000000000000000000000000000602082015250565b600061111c602683610f73565b9150611127826110c0565b604082019050919050565b6000602082019050818103600083015261114b8161110f565b9050919050565b7f4f776e61626c653a2063616c6c6572206973206e6f7420746865206f776e6572600082015250565b6000611188602083610f73565b915061119382611152565b602082019050919050565b600060208201905081810360008301526111b78161117b565b905091905056fea2646970667358221220810922afb5ca087cb2385b98388c91c4f9b4798741215dad541675ef17f3e39364736f6c634300081c0033",
  "linkReferences": {},
  "deployedLinkReferences": {}
}